:020000040800F2
:1000000000280020A5100008351000083B1000084B
:1000100041100008471000084D10000800000000C3
:100020000000000000000000000000005310000865
:100030005F100008000000006B1000087710000837
:10004000ED100008ED100008ED100008ED1000089C
:10005000ED100008ED100008ED100008ED1000088C
:10006000ED100008ED100008ED100008ED1000087C
:10007000ED100008ED100008ED100008ED1000086C
:10008000ED100008ED100008ED100008ED1000085C
:10009000ED100008ED100008ED100008ED1000084C
:1000A000ED100008ED100008ED100008ED1000083C
:1000B00085100008ED10000800000000ED10000899
:1000C000ED1000080000000000000000ED10000826
:1000D00000000000ED100008ED1000080000000016
:1000E000ED100008ED100008ED1000080000000001
:1000F0000000000000000000000000000000000000
:0C01000000000000000000005FF808F1A3
:10010C0010B5054C237833B9044B13B10448AFF345
:10011C0000800123237010BD7C0000200000000033
:10012C003427000808B5034B1BB103490348AFF350
:10013C00008008BD0000000080000020342700086B
:10014C0080B400AF064B1B68012B04D1044B00227A
:10015C001A60012300E000231846BD4680BC70479E
:10016C009800002080B400AF064B1B68012B04D113
:10017C00044B00221A60012300E000231846BD4600
:10018C0080BC70479C00002080B400AF064B1B68FD
:10019C00012B04D1044B00221A60012300E0002340
:1001AC001846BD4680BC7047A000002080B400AF4C
:1001BC00034B01221A6000BFBD4680BC704700BFD4
:1001CC009800002080B400AF034B01221A6000BFDE
:1001DC00BD4680BC704700BF9C00002080B400AFBF
:1001EC00034B01221A6000BFBD4680BC704700BFA4
:1001FC00A000002080B500AF654B1B68654A1360FA
:10020C00654B1B68624A13604FF40051634801F060
:10021C0053FA03461A46604B1A605D4B1A685E4BE4
:10022C001B689A422BD15A4B1A685A4B1B689A423C
:10023C0025D1584B1A685A4B1B689A420DD0554B16
:10024C001B68574A1360564B1B68002B17D1554B34
:10025C0064221A60FFF7AAFF11E0514B1B68002BB8
:10026C000DD1504B1B68013B4E4A13604D4B1B6824
:10027C00002B04D14B4B64221A60FFF797FF4A4BBB
:10028C001B684A4A13604A4B1B68474A13604FF479
:10029C008041424801F010FA03461A46444B1A605A
:1002AC00414B1A68424B1B689A422BD13E4B1A6841
:1002BC003E4B1B689A4225D13C4B1A683D4B1B6840
:1002CC009A420DD0394B1B683A4A1360394B1B6864
:1002DC00002B17D1384B64221A60FFF773FF11E023
:1002EC00344B1B68002B0DD1334B1B68013B324A3E
:1002FC001360314B1B68002B04D12F4B64221A6006
:10030C00FFF760FF2D4B1B682D4A13602D4B1B68AC
:10031C002A4A13604FF40041204801F0CDF90346FE
:10032C001A46284B1A60254B1A68264B1B689A42B2
:10033C002BD1224B1A68224B1B689A4225D1204B99
:10034C001A68214B1B689A420DD01D4B1B681E4A24
:10035C0013601D4B1B68002B17D11C4B64221A60B9
:10036C00FFF73CFF11E0184B1B68002B0DD1174B0E
:10037C001B68013B154A1360144B1B68002B04D1FE
:10038C00124B64221A60FFF729FF00BF80BD00BF2B
:10039C000400002008000020000000200010014094
:1003AC000C00002030000020140000201800002059
:1003BC00100000201C00002034000020240000202D
:1003CC0028000020200000202C00002038000020F5
:1003DC0080B483B000AF786039607B68184A82FBC8
:1003EC0003129210DB17D31A164A13607968144B58
:1003FC0083FB01239A10CB17D21A13469B0013448C
:10040C005B00CA1A0F4B5A603B680D4A82FB031201
:10041C009210DB17D31A0B4A93603968084B83FB95
:10042C0001239A10CB17D21A13469B0013445B007E
:10043C00CA1A044BDA6000BF0C37BD4680BC70474B
:10044C00676666665400002080B400AF284B1B68BA
:10045C00002B22DC274B1B68002B07D1254B0222DB
:10046C001A60254B9B68224A136016E0214B1B68CF
:10047C00012B07D11F4B00221A601F4B1B681C4A13
:10048C0013600AE01B4B1B68022B06D1194B01228F
:10049C001A60194B5B68164A1360184B1B68002BCB
:1004AC0022DC174B1B68002B07D1154B02221A605C
:1004BC00114B9B68114A136016E0114B1B68012B02
:1004CC0007D10F4B00221A600B4B1B680B4A1360B1
:1004DC000AE00B4B1B68022B06D1094B01221A6058
:1004EC00054B5B68054A136000BFBD4680BC704776
:1004FC0068000020A8000020480000206C000020AC
:10050C006400002080B500AF404B1B68002B0FD15E
:10051C00012240213E4801F0E6F8012280213C48AE
:10052C0001F0E1F800222021394801F0DCF826E046
:10053C00364B1B68012B0FD101222021344801F0CE
:10054C00D2F801228021324801F0CDF8002240215E
:10055C002F4801F0C8F812E02C4B1B68022B0ED16F
:10056C00012220212A4801F0BEF80122402128480E
:10057C0001F0B9F800228021254801F0B4F8254B90
:10058C001B68002B12D101224FF48061204801F02E
:10059C00AAF801224FF400611D4801F0A4F80022D2
:1005AC004FF400711A4801F09EF82CE0194B1B68AF
:1005BC00012B12D101224FF40071154801F093F870
:1005CC0001224FF40061124801F08DF800224FF423
:1005DC0080610F4801F087F815E00E4B1B68022B69
:1005EC0011D101224FF40071094801F07CF801226D
:1005FC004FF48061064801F076F800224FF4006158
:10060C00034801F070F800BF80BD00BFA8000020B7
:10061C00000801406400002080B500AF1A4B1B6835
:10062C00002B2FD0194B1B68194A52F8233018464F
:10063C0000F032F8154B1B680233154A52F8233080
:10064C00184600F0B7F80221124801F064F80421B2
:10065C00104801F060F808210E4801F05CF81021F8
:10066C000C4801F058F8094B1B680133074A13601A
:10067C00064B1B68012B02DD044B00221A6019206B
:10068C0000F026FC00BF80BDBC000020AC000020A8
:10069C00540000200008014080B582B000AF7860A3
:1006AC007B68092B7FD801A252F823F0E1060008E1
:1006BC00F70600080D070008230700083907000893
:1006CC004F070008650700087B0700089107000822
:1006DC009D07000800223F21354801F004F8012253
:1006EC004021334800F0FFFF5DE000220621304836
:1006FC0000F0F9FF012279212D4800F0F4FF52E0BF
:10070C0000225B212A4800F0EEFF01222421284818
:10071C0000F0E9FF47E000224F21254800F0E3FFFD
:10072C0001223021224800F0DEFF3CE0002266214D
:10073C001F4800F0D8FF012219211D4800F0D3FFFB
:10074C0031E000226D211A4800F0CDFF0122122168
:10075C00174800F0C8FF26E000227D21144800F065
:10076C00C2FF01220221124800F0BDFF1BE0002253
:10077C0007210F4800F0B7FF012278210C4800F048
:10078C00B2FF10E000227F21094800F0ACFF0AE024
:10079C0000226F21064800F0A6FF01221021044818
:1007AC0000F0A1FF00BF00BF0837BD4680BD00BFF1
:1007BC00000C014080B582B000AF78607B68092BDB
:1007CC0000F2948001A252F823F000BF0108000847
:1007DC001B080008350800084F08000869080008C5
:1007EC00830800089D080008B7080008D108000815
:1007FC00DF08000800224FF47C513E4800F073FFE4
:10080C0001224FF480413B4800F06DFF6EE0002266
:10081C004FF4C061374800F066FF01224FF4F241FB
:10082C00344800F060FF61E000224FF4B6413148DB
:10083C0000F059FF01224FF410512E4800F053FFE5
:10084C0054E000224FF49E412A4800F04CFF012254
:10085C004FF44051274800F046FF47E000224FF488
:10086C00CC41244800F03FFF01224FF4C8512148ED
:10087C0000F039FF3AE000224FF4DA411D4800F055
:10088C0032FF01224FF490511A4800F02CFF2DE05A
:10089C0000224FF4FA41174800F025FF01224FF4D3
:1008AC000071144800F01FFF20E000224FF4E061BB
:1008BC00104800F018FF01224FF4F0410D4800F0F1
:1008CC0012FF13E000224FF4FE410A4800F00BFF28
:1008DC000CE000224FF4DE41064800F004FF012238
:1008EC004FF48051034800F0FEFE00BF00BF0837F4
:1008FC00BD4680BD000C014080B500AF094B1B68A4
:10090C00002B0CD0084B1B68013B074A1360074BAC
:10091C001B68013B054A1360642000F0C5FA00BF58
:10092C0080BD00BFB4000020680000206C000020D7
:10093C0080B500AFAD4B1B68042B00F2928101A275
:10094C0052F823F0650900089F090008070A0008FF
:10095C00B90A00086B0B0008A44B01221A60012095
:10096C0000F0A2FA012000F0B3FA00220221A04804
:10097C0000F0B9FE012204219D4800F0B4FE0022D3
:10098C0008219B4800F0AFFE01221021984800F08E
:10099C00AAFE964B01221A60FFF7AEFFFFF754FD3B
:1009AC00944B1B68944A126811461846FFF710FDC9
:1009BC00FFF732FEFFF7A6FDFFF7C2FB0346002B45
:1009CC0000F04881894B02221A600122E0218848FC
:1009DC0000F089FE01224FF46061854800F083FE2F
:1009EC00864B1B6819460220FFF7F2FC322000F000
:1009FC005BFA322000F06CFA2CE1FFF70DFE804B15
:100A0C001B68002B0BD02021794800F084FE4FF49A
:100A1C000071774800F07FFE322000F045FAFFF7B6
:100A2C008FFB0346002B1ED0704B03221A60012251
:100A3C00E0216F4800F057FE01224FF460616C48D2
:100A4C0000F051FE6D4B5B6819460320FFF7C0FCAC
:100A5C00322000F029FA322000F03AFA694B1B6878
:100A6C00664A1360F8E0FFF77DFB0346002B12D0BB
:100A7C00624B1B680133614A1360604B1B68632B2C
:100A8C0002DD5E4B01221A605C4B1B68194602208A
:100A9C00FFF79EFCE0E0FFF777FB0346002B00F02E
:100AAC00DB80564B1B68574A1360D5E0FFF7B4FD4B
:100ABC00534B1B68002B0BD040214D4800F02BFEF4
:100ACC004FF480614A4800F026FE322000F0ECF929
:100ADC00FFF736FB0346002B1ED0444B04221A6052
:100AEC000122E021424800F0FEFD01224FF460613A
:100AFC003F4800F0F8FD414B9B6819460420FFF776
:100B0C0067FC322000F0D0F9322000F0E1F93D4BC7
:100B1C005B683A4A5360A1E0FFF724FB0346002BC5
:100B2C0012D0364B5B680133344A5360334B5B68ED
:100B3C00632B02DD314B01225A60304B5B68194646
:100B4C000320FFF745FC89E0FFF71EFB0346002B53
:100B5C0000F08480294B5B682A4A53607EE0FFF7E3
:100B6C005BFD274B1B68002B0BD08021204800F02D
:100B7C00D2FD4FF400611E4800F0CDFD322000F094
:100B8C0093F9FFF7DDFA0346002B41D0174B0122F6
:100B9C001A600122E021164800F0A5FD01224FF455
:100BAC006061134800F09FFD144B1B68134A926858
:100BBC0011461846FFF70CFC104B1B680D4A1360CE
:100BCC000E4B9B680C4A13600F4B00221A600F4BA4
:100BDC0002221A60012000F067F9012000F078F978
:100BEC00084B9B68054A93603AE000BFA4000020C4
:100BFC0000080140680000206C0000204800002024
:100C0C00B40000203C000020A8000020640000205C
:100C1C00FFF7A8FA0346002B12D0134B9B68013345
:100C2C00114A9360104B9B68632B02DD0E4B012223
:100C3C009A600D4B9B6819460420FFF7C9FB0FE027
:100C4C00FFF7A2FA0346002B0AD0074B9B68074A12
:100C5C00936005E000BF04E000BF02E000BF00E0CD
:100C6C0000BF00BF80BD00BF480000203C0000203A
:100C7C0080B500AF00F036FA00F007F800F090F8FD
:100C8C0000F03EF8FFF754FEFCE780B590B000AFE3
:100C9C0007F1180328220021184601F03DFD3B1DE9
:100CAC0000221A605A609A60DA601A610223BB61F2
:100CBC000123BB621023FB6200237B6307F1180343
:100CCC00184600F041FD0346002B01D000F0E6F879
:100CDC000F237B600023BB600023FB6000233B6180
:100CEC0000237B613B1D0021184600F0ADFF03463D
:100CFC00002B01D000F0D2F800BF4037BD4680BDBC
:100D0C0080B586B000AF07F1080300221A605A6064
:100D1C009A60DA603B4600221A605A601F4B4FF013
:100D2C0080421A601D4B41F63F725A601B4B0022E9
:100D3C009A601A4B0922DA60184B00221A61174B81
:100D4C0000229A61154801F0DBF80346002B01D014
:100D5C0000F0A4F84FF48053BB6007F10803194668
:100D6C000E4801F071FA0346002B01D000F096F802
:100D7C0000233B6000237B603B461946074801F08B
:100D8C003DFC0346002B01D000F088F8034801F02D
:100D9C0007F900BF1837BD4680BD00BFC800002052
:100DAC0080B588B000AF07F1100300221A605A60BA
:100DBC009A60DA602F4B9B692E4A43F010039361C3
:100DCC002C4B9B6903F01003FB60FB68294B9B6960
:100DDC00284A43F004039361264B9B6903F00403F8
:100DEC00BB60BB68234B9B69224A43F008039361A9
:100DFC00204B9B6903F008037B607B68002240F664
:100E0C00FE611D4800F06FFC002247F67F711B4805
:100E1C0000F069FC4FF460433B6100237B610023CD
:100E2C00BB6107F110031946154800F0CBFA40F6E8
:100E3C00FE633B6101237B610023BB610223FB61E9
:100E4C0007F1100319460C4800F0BCFA47F67F7303
:100E5C003B6101237B610023BB610223FB6107F132
:100E6C0010031946054800F0ADFA00BF2037BD4607
:100E7C0080BD00BF0010024000080140000C014082
:100E8C000010014080B582B000AF786000F034F8FB
:100E9C00FFF7B0F900BF0837BD4680BD80B400AF86
:100EAC0072B600BFFEE7000080B483B000AF78607C
:100EBC00054A7B681360054B00221A6000BF0C3793
:100ECC00BD4680BC704700BFB0000020B4000020BD
:100EDC0080B483B000AF7860054A7B681360054B23
:100EEC0000221A6000BF0C37BD4680BC704700BFA3
:100EFC00B8000020BC00002080B400AF194B1B6868
:100F0C00002B0BDD174B1B68013B164A1360154B6E
:100F1C001B68002B02DC144B01221A60134B1B685C
:100F2C00002B0BDD114B1B68013B104A13600F4B60
:100F3C001B68002B02DC0E4B01221A600D4B1B6848
:100F4C00002B0BDD0B4B1B68013B0A4A1360094B52
:100F5C001B68002B02DC084B01221A6000BFBD4647
:100F6C0080BC7047B0000020B4000020B800002006
:100F7C00BC000020C0000020C400002080B485B05C
:100F8C0000AF154B9B69144A43F001039361124B5C
:100F9C009B6903F00103BB60BB680F4BDB690E4A16
:100FAC0043F08053D3610C4BDB6903F080537B60BF
:100FBC007B680A4B5B68FB60FB6823F0E063FB60BB
:100FCC00FB6843F00073FB60044AFB68536000BF8E
:100FDC001437BD4680BC7047001002400000014031
:100FEC0080B584B000AF78607B681B68B3F1804F2C
:100FFC0013D10C4BDB690B4A43F00103D361094B52
:10100C00DB6903F00103FB60FB68002200211C205C
:10101C0000F0A1F91C2000F0BAF900BF1037BD4652
:10102C0080BD00BF0010024080B400AFFEE780B46A
:10103C0000AFFEE780B400AFFEE780B400AFFEE780
:10104C0080B400AFFEE780B400AF00BFBD4680BCEB
:10105C00704780B400AF00BFBD4680BC704780B401
:10106C0000AF00BFBD4680BC704780B500AF00F03C
:10107C007FF800BF80BD000080B500AF024800F0D3
:10108C00DBFF00BF80BD00BFC800002080B400AFF4
:10109C0000BFBD4680BC7047FFF7F8FF0B480C49FA
:1010AC000C4A002302E0D458C4500433C4188C42B8
:1010BC00F9D3094A094C002301E013600432A2421F
:1010CC00FBD301F005FBFFF7D3FD704700000020B8
:1010DC007C000020782700087C00002014010020F0
:1010EC00FEE7000080B500AF084B1B68074A43F0D1
:1010FC0010031360032000F023F90F2000F008F810
:10110C00FFF73CFF0023184680BD00BF00200240C3
:10111C0080B582B000AF7860124B1A68124B1B7806
:10112C0019464FF47A73B3FBF1F3B2FBF3F31846A1
:10113C0000F03BF90346002B01D001230EE07B6845
:10114C000F2B0AD8002279684FF0FF3000F003F91A
:10115C00064A7B681360002300E001231846083719
:10116C00BD4680BD70000020780000207400002077
:10117C0080B400AF054B1B781A46054B1B68134413
:10118C00034A136000BFBD4680BC70477800002046
:10119C001001002080B400AF024B1B681846BD46FE
:1011AC0080BC70471001002080B485B000AF78601F
:1011BC007B6803F00703FB600C4BDB68BB60BA6811
:1011CC004FF6FF031340BB60FB681A02BB68134366
:1011DC0043F0BF6343F40033BB60044ABB68D36085
:1011EC0000BF1437BD4680BC704700BF00ED00E067
:1011FC0080B400AF044BDB681B0A03F007031846EE
:10120C00BD4680BC704700BF00ED00E080B483B0E9
:10121C0000AF0346FB7197F90730002B0BDBFB7912
:10122C0003F01F02064997F907305B09012000FA09
:10123C0002F241F8232000BF0C37BD4680BC70473A
:10124C0000E100E080B483B000AF03463960FB716D
:10125C0097F90730002B0ADB3B68DAB20C4997F997
:10126C0007301201D2B20B4483F800230AE03B682A
:10127C00DAB20849FB7903F00F03043B1201D2B236
:10128C000B441A7600BF0C37BD4680BC704700BFBC
:10129C0000E100E000ED00E080B489B000AFF86040
:1012AC00B9607A60FB6803F00703FB61FB69C3F16B
:1012BC000703042B28BF0423BB61FB690433062BF3
:1012CC0002D9FB69033B00E000237B614FF0FF3246
:1012DC00BB6902FA03F3DA43BB681A407B699A4094
:1012EC004FF0FF317B6901FA03F3D9437B680B4064
:1012FC00134318462437BD4680BC704780B582B076
:10130C0000AF78607B68013BB3F1807F01D3012390
:10131C000FE00A4A7B68013B53600F214FF0FF300E
:10132C00FFF790FF054B00229A60044B07221A60CE
:10133C00002318460837BD4680BD00BF10E000E012
:10134C0080B582B000AF78607868FFF72DFF00BFE2
:10135C000837BD4680BD80B586B000AF0346B96086
:10136C007A60FB7300237B61FFF742FF78617A6838
:10137C00B9687869FFF790FF024697F90F3011466C
:10138C001846FFF75FFF00BF1837BD4680BD80B51C
:10139C0082B000AF0346FB7197F907301846FFF790
:1013AC0035FF00BF0837BD4680BD80B582B000AFA9
:1013BC0078607868FFF7A2FF034618460837BD46E9
:1013CC0080BD000080B48BB000AF78603960002322
:1013DC007B6200233B6248E101227B6A02FA03F341
:1013EC00FB613B681B68FA691340BB61BA69FB6916
:1013FC009A4240F037813B685B68A34A93425ED0C7
:10140C00A14A934275D8A14A934258D09F4A93421D
:10141C006FD89F4A934252D09D4A934269D89D4AB5
:10142C0093424CD09B4A934263D89B4A934246D0FA
:10143C00994A93425DD8122B2AD8122B59D801A263
:10144C0052F823F0CB140008A5140008B7140008B8
:10145C00F9140008FF140008FF140008FF1400081A
:10146C00FF140008FF140008FF140008FF14000804
:10147C00FF140008FF140008FF140008FF140008F4
:10148C00FF140008FF140008AD140008C114000874
:10149C00824A934213D02CE03B68DB683B6229E024
:1014AC003B68DB6804333B6224E03B68DB68083351
:1014BC003B621FE03B68DB680C333B621AE03B6825
:1014CC009B68002B02D104233B6213E03B689B68B2
:1014DC00012B05D108233B627B68FA691A6109E08C
:1014EC0008233B627B68FA695A6103E000233B6284
:1014FC0000E000BFBB69FF2B01D87B6801E07B6873
:10150C0004337B61BB69FF2B02D87B6A9B0002E032
:10151C007B6A083B9B003B617B691A680F213B6926
:10152C0001FA03F3DB431A40396A3B6901FA03F30E
:10153C001A437B691A603B685B6803F08053002B8D
:10154C0000F09080564B9B69554A43F00103936120
:10155C00534B9B6903F00103BB60BB68514A7B6A28
:10156C009B08023352F82330FB607B6A03F00303C1
:10157C009B000F2202FA03F3DB43FA681340FB6073
:10158C007B68494A93420DD07B68484A934207D006
:10159C007B68474A934201D1022304E0032302E013
:1015AC00012300E000237A6A02F0030292009340C8
:1015BC00FA681343FB603B497B6A9B080233FA6869
:1015CC0041F823203B685B6803F48013002B06D0A2
:1015DC00384B9A683749BB6913438B6006E0354B2F
:1015EC009A68BB69DB43334913408B603B685B688B
:1015FC0003F40013002B06D02E4BDA682D49BB697F
:10160C001343CB6006E02B4BDA68BB69DB432949FB
:10161C001340CB603B685B6803F40033002B06D0AF
:10162C00244B5A682349BB6913434B6006E0214B9A
:10163C005A68BB69DB431F4913404B603B685B68CE
:10164C0003F48033002B06D01A4B1A681949BB6976
:10165C0013430B6006E0174B1A68BB69DB43154953
:10166C0013400B607B6A01337B623B681A687B6AB0
:10167C0022FA03F3002B7FF4AFAE00BF00BF2C3770
:10168C00BD4680BC704700BF000032100000311016
:10169C000000221000002110000012100000111098
:1016AC00001002400000014000080140000C014005
:1016BC00001001400004014080B485B000AF786098
:1016CC000B467B807B689A687B881340002B02D08A
:1016DC000123FB7301E00023FB73FB7B18461437DB
:1016EC00BD4680BC704780B483B000AF78600B46B9
:1016FC007B8013467B707B78002B03D07A887B68C9
:10170C001A6103E07B881A047B681A6100BF0C37EE
:10171C00BD4680BC704780B485B000AF78600B4686
:10172C007B807B68DB68FB607A88FB6813401A045B
:10173C00FB68D9437B880B401A437B681A6100BF56
:10174C001437BD4680BC704780B586B000AF78605A
:10175C007B68002B01D101236CE27B681B6803F0D2
:10176C000103002B00F08780924B5B6803F00C03A5
:10177C00042B0CD08F4B5B6803F00C03082B12D19D
:10178C008C4B5B6803F48033B3F5803F0BD1894BF2
:10179C001B6803F40033002B6CD07B685B68002B58
:1017AC0068D1012346E27B685B68B3F5803F06D1C4
:1017BC00804B1B687F4A43F4803313602EE07B68B8
:1017CC005B68002B0CD17B4B1B687A4A23F480336B
:1017DC001360784B1B68774A23F4802313601DE059
:1017EC007B685B68B3F5A02F0CD1724B1B68714AF8
:1017FC0043F4802313606F4B1B686E4A43F48033B1
:10180C0013600BE06B4B1B686A4A23F48033136044
:10181C00684B1B68674A23F4802313607B685B6802
:10182C00002B13D0FFF7B6FC386108E0FFF7B2FCD1
:10183C0002463B69D31A642B01D90323FAE15D4BB1
:10184C001B6803F40033002BF0D014E0FFF7A2FC6C
:10185C00386108E0FFF79EFC02463B69D31A642B03
:10186C0001D90323E6E1534B1B6803F40033002B2F
:10187C00F0D100E000BF7B681B6803F00203002B73
:10188C0063D04C4B5B6803F00C03002B0BD0494B23
:10189C005B6803F00C03082B1CD1464B5B6803F40C
:1018AC008033002B16D1434B1B6803F00203002B33
:1018BC0005D07B681B69012B01D00123BAE13D4B9C
:1018CC001B6823F0F8027B685B69DB003949134322
:1018DC000B603AE07B681B69002B20D0364B012251
:1018EC001A60FFF757FC386108E0FFF753FC02461B
:1018FC003B69D31A022B01D903239BE12D4B1B68A7
:10190C0003F00203002BF0D02A4B1B6823F0F802E3
:10191C007B685B69DB00274913430B6015E0264BA2
:10192C0000221A60FFF736FC386108E0FFF732FC42
:10193C0002463B69D31A022B01D903237AE11D4BD2
:10194C001B6803F00203002BF0D17B681B6803F0CB
:10195C000803002B3AD07B689B69002B19D0174BDE
:10196C0001221A60FFF716FC386108E0FFF712FC41
:10197C0002463B69D31A022B01D903235AE10D4BC2
:10198C005B6A03F00203002BF0D0012000F09AFAFE
:10199C001CE00A4B00221A60FFF7FCFB38610FE0D9
:1019AC00FFF7F8FB02463B69D31A022B08D9032335
:1019BC0040E100BF0010024000004242800442425D
:1019CC009E4B5B6A03F00203002BE9D17B681B681A
:1019DC0003F00403002B00F0A6800023FB75974B4B
:1019EC00DB6903F08053002B0DD1944BDB69934AD8
:1019FC0043F08053D361914BDB6903F08053BB60A0
:101A0C00BB680123FB758E4B1B6803F48073002BA2
:101A1C0018D18B4B1B688A4A43F480731360FFF711
:101A2C00B9FB386108E0FFF7B5FB02463B69D31AF6
:101A3C00642B01D90323FDE0814B1B6803F48073F5
:101A4C00002BF0D07B68DB68012B06D17B4B1B6A2B
:101A5C007A4A43F0010313622DE07B68DB68002BAC
:101A6C000CD1764B1B6A754A23F001031362734B3E
:101A7C001B6A724A23F0040313621CE07B68DB6868
:101A8C00052B0CD16D4B1B6A6C4A43F0040313629B
:101A9C006A4B1B6A694A43F0010313620BE0674B04
:101AAC001B6A664A23F001031362644B1B6A634A88
:101ABC0023F0040313627B68DB68002B15D0FFF75F
:101ACC0069FB38610AE0FFF765FB02463B69D31AF4
:101ADC0041F28832934201D90323ABE0574B1B6A86
:101AEC0003F00203002BEED014E0FFF753FB386138
:101AFC000AE0FFF74FFB02463B69D31A41F28832EA
:101B0C00934201D9032395E04C4B1B6A03F002036B
:101B1C00002BEED1FB7D012B05D1484BDB69474AED
:101B2C0023F08053D3617B68DB69002B00F081804C
:101B3C00424B5B6803F00C03082B61D07B68DB69BC
:101B4C00022B46D13F4B00221A60FFF723FB386172
:101B5C0008E0FFF71FFB02463B69D31A022B01D9A1
:101B6C00032367E0354B1B6803F00073002BF0D1A7
:101B7C007B681B6AB3F5803F08D1304B5B6823F45C
:101B8C0000327B689B682D4913434B602B4B5B6881
:101B9C0023F474127B68196A7B685B6A0B432749D0
:101BAC0013434B60274B01221A60FFF7F3FA38619D
:101BBC0008E0FFF7EFFA02463B69D31A022B01D972
:101BCC00032337E01D4B1B6803F00073002BF0D090
:101BDC002FE01C4B00221A60FFF7DCFA386108E09A
:101BEC00FFF7D8FA02463B69D31A022B01D903231B
:101BFC0020E0124B1B6803F00073002BF0D118E0AF
:101C0C007B68DB69012B01D1012313E00B4B5B6873
:101C1C00FB60FB6803F480327B681B6A9A4206D136
:101C2C00FB6803F470127B685B6A9A4201D0012353
:101C3C0000E0002318461837BD4680BD0010024056
:101C4C00007000406000424280B584B000AF786004
:101C5C0039607B68002B01D10123D0E06A4B1B68F3
:101C6C0003F007033A689A4210D9674B1B6823F0BC
:101C7C00070265493B6813430B60634B1B6803F019
:101C8C0007033A689A4201D00123B8E07B681B68CD
:101C9C0003F00203002B20D07B681B6803F00403C5
:101CAC00002B05D0594B5B68584A43F4E0635360F2
:101CBC007B681B6803F00803002B05D0534B5B6853
:101CCC00524A43F460535360504B5B6823F0F0026C
:101CDC007B689B684D4913434B607B681B6803F022
:101CEC000103002B40D07B685B68012B07D1474B6D
:101CFC001B6803F40033002B15D101237FE07B68B4
:101D0C005B68022B07D1414B1B6803F00073002B5F
:101D1C0009D1012373E03D4B1B6803F00203002B38
:101D2C0001D101236BE0394B5B6823F003027B6824
:101D3C005B68364913434B60FFF72CFAF8600AE0F6
:101D4C00FFF728FA0246FB68D31A41F28832934215
:101D5C0001D9032353E02D4B5B6803F00C027B6825
:101D6C005B689B009A42EBD1274B1B6803F007037F
:101D7C003A689A4210D2244B1B6823F0070222497E
:101D8C003B6813430B60204B1B6803F007033A6856
:101D9C009A4201D0012332E07B681B6803F00403F4
:101DAC00002B08D0194B5B6823F4E0627B68DB687E
:101DBC00164913434B607B681B6803F00803002B28
:101DCC0009D0124B5B6823F460527B681B69DB0003
:101DDC000E4913434B6000F021F802460B4B5B6835
:101DEC001B0903F00F030A49CB5C22FA03F3094ADF
:101DFC001360094B1B681846FFF78AF90023184635
:101E0C001037BD4680BD00BF0020024000100240CC
:101E1C004C270008700000207400002080B487B0AC
:101E2C0000AF0023FB600023BB6000237B61002319
:101E3C007B6000233B611E4B5B68FB60FB6803F01F
:101E4C000C03042B02D0082B03D027E0194B3B6169
:101E5C0027E0FB689B0C03F00F03174AD35C7B60F5
:101E6C00FB6803F48033002B10D0114B5B685B0CC8
:101E7C0003F00103114AD35CBB607B680D4A02FB83
:101E8C0003F2BB68B2FBF3F37B6104E07B680C4AA2
:101E9C0002FB03F37B617B693B6102E0054B3B6119
:101EAC0000BF3B6918461C37BD4680BC704700BF5D
:101EBC000010024000127A005C2700086C27000812
:101ECC0000093D0080B485B000AF78600A4B1B68F8
:101EDC000A4AA2FB03235B0A7A6802FB03F3FB604A
:101EEC0000BFFB685A1EFA60002BF9D100BF00BF7F
:101EFC001437BD4680BC704770000020D34D621073
:101F0C0080B582B000AF78607B68002B01D10123D3
:101F1C0041E07B6893F83D30DBB2002B06D17B6847
:101F2C00002283F83C207868FFF75AF87B6802227D
:101F3C0083F83D207B681A687B6804331946104689
:101F4C0000F06EFA7B68012283F846207B68012240
:101F5C0083F83E207B68012283F83F207B680122B6
:101F6C0083F840207B68012283F841207B680122A2
:101F7C0083F842207B68012283F843207B6801228E
:101F8C0083F844207B68012283F845207B6801227A
:101F9C0083F83D20002318460837BD4680BD00005D
:101FAC0080B485B000AF78607B6893F83D30DBB2CD
:101FBC00012B01D0012335E07B68022283F83D2000
:101FCC007B681B68DA687B681B6842F00102DA6088
:101FDC007B681B68164A934209D07B681B68B3F177
:101FEC00804F04D07B681B68124A934211D17B68E6
:101FFC001B689B6803F00703FB60FB68062B10D083
:10200C007B681B681A687B681B6842F001021A60C7
:10201C0007E07B681B681A687B681B6842F001024A
:10202C001A60002318461437BD4680BC704700BFA9
:10203C00002C01400004004080B582B000AF7860F5
:10204C007B681B681B6903F00203022B22D17B689F
:10205C001B68DB6803F00203022B1BD17B681B6837
:10206C006FF002021A617B6801221A777B681B6889
:10207C009B6903F00303002B03D0786800F0B4F9DC
:10208C0005E0786800F0A7F9786800F0B6F97B688D
:10209C0000221A777B681B681B6903F00403042B6E
:1020AC0022D17B681B68DB6803F00403042B1BD173
:1020BC007B681B686FF004021A617B6802221A7736
:1020CC007B681B689B6903F44073002B03D0786812
:1020DC0000F08AF905E0786800F07DF9786800F086
:1020EC008CF97B6800221A777B681B681B6903F0EC
:1020FC000803082B22D17B681B68DB6803F00803FC
:10210C00082B1BD17B681B686FF008021A617B6877
:10211C0004221A777B681B68DB6903F00303002B2E
:10212C0003D0786800F060F905E0786800F053F9A6
:10213C00786800F062F97B6800221A777B681B686C
:10214C001B6903F01003102B22D17B681B68DB6822
:10215C0003F01003102B1BD17B681B686FF010026F
:10216C001A617B6808221A777B681B68DB6903F4A9
:10217C004073002B03D0786800F036F905E07868DE
:10218C0000F029F9786800F038F97B6800221A779A
:10219C007B681B681B6903F00103012B0ED17B6864
:1021AC001B68DB6803F00103012B07D17B681B68FC
:1021BC006FF001021A617868FEF764FE7B681B6899
:1021CC001B6903F08003802B0ED17B681B68DB68D6
:1021DC0003F08003802B07D17B681B686FF08002B3
:1021EC001A61786800F06BFA7B681B681B6903F056
:1021FC004003402B0ED17B681B68DB6803F0400367
:10220C00402B07D17B681B686FF040021A6178681D
:10221C0000F0FCF87B681B681B6903F02003202B83
:10222C000ED17B681B68DB6803F02003202B07D1E1
:10223C007B681B686FF020021A61786800F036FA30
:10224C0000BF0837BD4680BD80B584B000AF786054
:10225C0039600023FB737B6893F83C30012B01D170
:10226C000223B4E07B68012283F83C207B680222C5
:10227C0083F83D207B681B689B68BB60BB6823F0C0
:10228C007703BB60BB6823F47F43BB607B681B6830
:10229C00BA689A603B681B68B3F5005F3ED0B3F533
:1022AC00005F00F28780B3F5805F00F08680B3F5A5
:1022BC00805F7FD8702B1AD0702B7BD8602B50D0BE
:1022CC00602B77D8502B3CD0502B73D8402B58D048
:1022DC00402B6FD8302B64D0302B6BD8202B60D098
:1022EC00202B67D8002B5CD0102B5AD062E07B6877
:1022FC0018683B6899683B685A683B68DB6800F073
:10230C005EF97B681B689B68BB60BB6843F0770316
:10231C00BB607B681B68BA689A604FE07B68186882
:10232C003B6899683B685A683B68DB6800F047F982
:10233C007B681B689A687B681B6842F480429A60D1
:10234C003CE07B6818683B6859683B68DB681A4658
:10235C0000F0BEF87B681B685021184600F015F998
:10236C002CE07B6818683B6859683B68DB681A4648
:10237C0000F0DCF87B681B686021184600F005F95A
:10238C001CE07B6818683B6859683B68DB681A4638
:10239C0000F09EF87B681B684021184600F0F5F8A9
:1023AC000CE07B681A683B681B681946104600F005
:1023BC00ECF803E00123FB7300E000BF7B68012213
:1023CC0083F83D207B68002283F83C20FB7B184679
:1023DC001037BD4680BD80B483B000AF786000BFBD
:1023EC000C37BD4680BC704780B483B000AF7860BA
:1023FC0000BF0C37BD4680BC704780B483B000AFC3
:10240C00786000BF0C37BD4680BC704780B483B089
:10241C0000AF786000BF0C37BD4680BC7047000031
:10242C0080B485B000AF786039607B681B68FB6056
:10243C007B68254A934207D07B68B3F1804F03D069
:10244C007B68224A934208D1FB6823F07003FB603F
:10245C003B685B68FA681343FB607B681A4A9342DB
:10246C0007D07B68B3F1804F03D07B68174A934247
:10247C0008D1FB6823F44073FB603B68DB68FA68A7
:10248C001343FB60FB6823F080023B685B691343DA
:10249C00FB607B68FA681A603B689A687B68DA6252
:1024AC003B681A687B689A627B68074A934203D13F
:1024BC003B681A697B681A637B6801225A6100BF0A
:1024CC001437BD4680BC7047002C0140000400400E
:1024DC0080B487B000AFF860B9607A60FB681B6AA3
:1024EC007B61FB681B6A23F00102FB681A62FB68C4
:1024FC009B693B613B6923F0F0033B617B681B01EB
:10250C003A6913433B617B6923F00A037B617A6967
:10251C00BB6813437B61FB683A699A61FB687A6913
:10252C001A6200BF1C37BD4680BC704780B487B0B0
:10253C0000AFF860B9607A60FB681B6A7B61FB686E
:10254C001B6A23F01002FB681A62FB689B693B61F3
:10255C003B6923F470433B617B681B033A6913436B
:10256C003B617B6923F0A0037B61BB681B017A692B
:10257C0013437B61FB683A699A61FB687A691A625A
:10258C0000BF1C37BD4680BC704780B485B000AF1F
:10259C00786039607B689B68FB60FB6823F0700394
:1025AC00FB603A68FB68134343F00703FB607B68EE
:1025BC00FA689A6000BF1437BD4680BC704780B47F
:1025CC0087B000AFF860B9607A603B60FB689B68CD
:1025DC007B617B6923F47F437B613B681A027B68D8
:1025EC001A43BB6813437A6913437B61FB687A69AE
:1025FC009A6000BF1C37BD4680BC704780B485B064
:10260C0000AF786039607B6893F83C30012B01D1C6
:10261C00022341E07B68012283F83C207B68022284
:10262C0083F83D207B681B685B68FB607B681B68DC
:10263C009B68BB60FB6823F07003FB603B681B6806
:10264C00FA681343FB607B681B68FA685A607B6806
:10265C001B68144A934209D07B681B68B3F1804F06
:10266C0004D07B681B68104A93420CD1BB6823F0E2
:10267C008003BB603B685B68BA681343BB607B68D4
:10268C001B68BA689A607B68012283F83D207B68DE
:10269C00002283F83C20002318461437BD4680BC2A
:1026AC00704700BF002C01400004004080B483B090
:1026BC0000AF786000BF0C37BD4680BC704780B45B
:1026CC0083B000AF786000BF0C37BD4680BC70474C
:1026DC0070B500260C4D0D4C641BA410A64209D1FC
:1026EC0000F022F800260A4D0A4C641BA410A642E6
:1026FC0005D170BD55F8043B98470136EEE755F807
:10270C00043B98470136F2E7702700087027000851
:10271C00702700087427000803460244934200D136
:10272C00704703F8011BF9E7F8B500BFF8BC08BC0B
:10273C009E467047F8B500BFF8BC08BC9E46704773
:10274C000000000000000000010203040607080955
:10275C0002030405060708090A0B0C0D0E0F1010D6
:04276C000102000066
:04277000310100082B
:042774000D0100084B
:10277800010000000100000001000000010000004D
:10278800010000000100000001000000010000003D
:10279800010000000100000001000000010000002D
:1027A80064000000640000006400000008000000ED
:1027B8000200000003000000080000000200000002
:1027C80003000000000000000800000000000000F6
:1027D80003000000020000000800000003000000E1
:0C27E8000024F4001000000001000000BC
:04000005080010A53A
:00000001FF
